:100000000C9434000C943E000C943E000C943E0082
:100010000C943E000C943E000C943E000C943E0068
:100020000C943E000C943E000C943E000C943E0058
:100030000C943E000C943E000C943E000C943E0048
:100040000C943E000C943E000C943E000C943E0038
:100050000C943E000C943E000C943E000C943E0028
:100060000C943E000C943E0011241FBECFEFD8E04C
:10007000DEBFCDBF0E9424010C9480010C940000CF
:1000800084EA8093BC008091BC0087FFFCCF809104
:10009000B900887F883051F08091B900887F803125
:1000A00029F08091B900887F90E0089580E090E089
:1000B00008958093BB0084E88093BC008091BC00CD
:1000C00087FFFCCF8091B900887F883151F0809103
:1000D000B900887F803429F08091B900887F90E052
:1000E000089580E090E008959C0187B1806387B90E
:1000F00088B1611579F0806388B987B18F7C87B941
:100100002130310549F02230310551F088E4232BAC
:1001100021F008958F7CF0CF88E18093B800089596
:100120008CE0FBCFFF920F931F93CF93DF93F82EBA
:100130008B01C42FD22F0E944000FC01892B51F566
:100140008F2D880F0E945900FC01892B19F5D801C9
:10015000A8014C0F511D94E84A175B0731F4D111E7
:1001600019C084E98093BC0015C08D918093BB00B9
:100170009093BC008091BC0087FFFCCF8091B900B8
:10018000887F883249F38091B900887F811521F3F7
:10019000E82FF0E0CF01DF91CF911F910F91FF90F9
:1001A00008950F931F93CF93DF93082FEB01142F24
:1001B0000E9440009C01892B41F5802F880F8160AF
:1001C0000E9459009C01892B01F5FE0160E070E05E
:1001D000812F8150990BAC0194EC64177507DCF00A
:1001E000C40FD51F84E88093BC008091BC0087FFBA
:1001F000FCCF8091B900887F883511F18091B900DA
:10020000887F888384E98093BC00C901DF91CF9106
:100210001F910F9108959093BC008091BC0087FFBF
:10022000FCCF8091B900887F803539F08091B9008A
:10023000887F81936F5F7F4FD0CF8091BB00F9CFD4
:100240008091BB00DECF089500D0CDB7DEB714B8E3
:100250000E94400060E080E090E00E94740084EA28
:100260008A8320E041E0BE016E5F7F4F8CE30E94F5
:10027000920086EA8A8320E041E0BE016E5F7F4FF4
:100280008CE30E9492008FEA8A8320E041E0BE0165
:100290006E5F7F4F8CE30E9492008EE78983189BEC
:1002A00013C089818B3714F48B5F898320E041E090
:1002B000BE016F5F7F4F8FE20E94920087EA91E656
:1002C0000197F1F700C000008981199B12C08530A9
:1002D00014F08550898320E041E0BE016F5F7F4FBD
:1002E0008FE20E94920087EA91E60197F1F700C041
:1002F000000083EC99E00197F1F700C00000CFCF38
:04030000F894FFCF9F
:00000001FF
